:020000040000FA
:10000000701F0020A10F0000A90F0000AB0F00001F
:1000100000000000000000000000000000000000E0
:10002000000000000000000000000000AD0F000014
:100030000000000000000000AF0F0000CB3C0000FB
:10004000410900009D0900009F090000C30900004C
:10005000E90900000F0A0000350A00005B0A0000F1
:10006000810A0000A70A0000DF0A00000B0B000055
:10007000370B0000AB0B0000130C00003F0C00001E
:100080007F0C0000BF0C0000FF0C0000690D000099
:10009000CB0D0000050E0000070E0000B30F00009E
:1000A000B30F0000330E0000350E0000370E0000C5
:1000B000B30F0000B30F0000B30F0000B30F000038
:1000C0000348854610F0EEFA00480047D5020000CC
:1000D000701F0020704770B56C2001F074F8C1B239
:1000E000FE48C170C078002800D170BDFC49096885
:1000F0008901402211400846FA4909789143014399
:10010000F84A117010460078C009002807D0104640
:1001100000784006C00F002801D0012000E0002038
:100120004003012149030840EC49203909680122B4
:10013000520391430843E949203908600846008882
:100140008004C00F00281AD00846406CC006C00FBB
:1001500000282FD10846406C102188431030DF4919
:10016000203948640846406CD10088434018DB4978
:10017000203948640021D94820300170B5E7D748BC
:100180002038406CC006C00F002813D0D348203858
:10019000406C10218843D149203948640846406C9E
:1001A000012109048843CD492039486400204031A9
:1001B00008709AE7C948C4782030007801280CDA22
:1001C000C64820300078401CC0B2C44920310870B5
:1001D000012802DA042C00DA87E7C04820380088BA
:1001E0008004C00F002804D00120C0032646064327
:1001F00000E02646BC49496E08461030314601F001
:1002000001FD0546FFF766FF002D06D0B3482038F4
:10021000007B4019B1492039087300BF65E710B56C
:10022000B24CB348006908210843B1490861AE499E
:100230006831204602F04DFBAD4800690821884333
:10024000AB4908610020A549203908730846406879
:1002500004218843001DA1492039486010BDF0B534
:1002600089B0A24E01AC05AD2146304602F086FAB7
:10027000C7B26079002809D16879022806D1242202
:100280009948683029680DF01BF804E0242196484D
:1002900068300DF02EF809B0F0BD10B504462046C8
:1002A0000CF066FF002010BD08B503216846017000
:1002B000012141700BF066FE8E488F4908600846A8
:1002C000C06A0121C90308438B49C8628B4800F00A
:1002D00075FF08BD8748884908600846C06A8021C4
:1002E00088438549C86203F0BDF98148006904214B
:1002F00088437F490861824800F060FF00F018FEE3
:10030000FF22FF21C1317F480CF0ECFF7D4800F057
:1003100022FEFF22F5327C497C480CF0D1FF03F02D
:1003200039FA03F0A0F972B6794800786B49403980
:100330004875734800F042FF714800F03FFF704875
:1003400000F03CFF6E4800F039FF6D4800F036FFCA
:1003500067480069082188436549086100206D49A4
:1003600008806D490880FFF79FFF02F045FB00F011
:1003700006FF01F0FCF8012107200CF06FFA1420B1
:1003800001218140654A116000BF654E6548864283
:1003900000D90EE03002000A401E63494861032183
:1003A000081F00F064FA00205F4988610720086197
:1003B00000BF62B65D480CF0F8FC00BF5C480078F6
:1003C000B84214D0524800784449403948755848DA
:1003D000077804204649C861FF22FF21C1314948FE
:1003E0000CF080FF474800F0B6FD01F0C3F94A4821
:1003F0000088052803DA474800880528DEDB3C48EA
:100400000069042108433A4908613448A038C06FA4
:1004100001210904884340183049A039C8670BF00E
:1004200001FCFFF71CFF304868302F494866002464
:1004300009E00C20214641432B488C300918A200CA
:1004400038388150641C042CF3D3012039490872D8
:1004500000BF2848284908600846C06A8021084330
:100460002549C8623448C07802218843801C32493B
:10047000C87032491948A038016602F07AFB91E150
:1004800000F0DCFD03F0A5F905462148007813498A
:10049000403948752A480078C007C00F002803D0AB
:1004A0000A21002000F0CEFC254800788007C00F0C
:1004B000002803D005210A2000F0C4FC2048007861
:1004C0004007C00F002803D006210F2000F0BAFC1F
:1004D0001B480078C007C00F002833E0280900201F
:1004E00000380140B000002088050020A817010056
:1004F000001201405AA5000000F00040FF5F00001C
:10050000FFAF0000080700200010010000030020DA
:1005100024170100400000203E00002000E100E020
:1005200050C30000FFFFFF0000E000E09B0200005E
:100530005C0000206C0B002009000020090400046E
:100540000D00002001D001F015F9E548C0788007C2
:10055000C00F002805D1E2480078C006C00F00286F
:1005600003D0E0480CF0C7FD0CE0DD480078000740
:10057000C00F002806D0DB486838806E401CD9497F
:1005800068398866D84908690A210CF06FFE06466A
:10059000D64903F0FBFFD44948690A210CF066FEF6
:1005A0000646D249091D03F0F1FFCD480078400707
:1005B000C00F00281DD0CE48806C012109040840DE
:1005C000002804D10120C9491031487011E0C74802
:1005D0001030407800280CD0C44810304078401EBD
:1005E000C2491031487008464078002801D104F013
:1005F00096FCBB4800784007C00F002811D0BB48CC
:100600001030C07E00280CD0B8481030C07E401E8C
:10061000C1B2B6481030C176C07E002801D100BFFB
:10062000FEE7052201210E2000F058FCAF481038EB
:10063000017BB04802780F2000F050FCA8484078B9
:10064000C007C00F012250400146AB48027802208B
:1006500000F044FCA948806C37225201904204DB30
:10066000A648806CA64A904201DD012000E00020EF
:100670000146A44802780B2000F030FC012D0AD07E
:10068000A148C07B4006C00F002804D1974810380D
:10069000007B642801DBFFF7C2FD012D05D19B48DB
:1006A000C078A843401C9949C8709748807B400691
:1006B000C00F002808D09448807BC009002803D1CF
:1006C00000218A48903801668F48807B4006C00F21
:1006D000002807D0824800788007C00F002801D08A
:1006E00002F050FF7E4800788007C00F002801D03C
:1006F00001F05EF87A4800788007C00F002805D026
:1007000083480088052801DAFFF7E5FC7448007883
:10071000C006C00F002801D00AF010FC7D48007808
:10072000C009002801D009F08DFB6D48C078400752
:10073000C00F002801D001F029FE6948C0780007E9
:10074000C00F002801D001F041FF6548C078C00605
:10075000C00F002804D05521FF20153000F0E6FE20
:100760005F48C0788006C00F002804D0AA21FF206F
:10077000153000F0DBFE5A48C078C007C00F0028D3
:100780000AD000BFBFF34F8F63486449C860BFF30E
:100790004F8F00BF00BFFEE73C21002000F012FC9D
:1007A00000F0C2FC6CE610B55D485E490860084682
:1007B000C06A102108435B49C8625B4800F0FEFC38
:1007C0008320584948600120C86110BD10B55448C5
:1007D000544908600846C06A102108435149C8625C
:1007E0005F2000F0EBFC83204E4948600520C86183
:1007F00010BD4B484B4908600846C06A4B49084049
:100800004849C862704738B50446258804226846BE
:1008100061680CF055FD009838BD01460A2903DADD
:1008200008463030C0B2704708463730C0B2FAE7E9
:10083000FEB504462007000FFFF7EFFF064621062E
:10084000080FFFF7EAFF07462105080FFFF7E5FF4E
:100850003B46024636A10096019001200FF034FF7E
:100860000546002D01DDE8B2FEBD0020FCE710B515
:1008700000281BDA294A1C3203071B0F083B9B0880
:100880009B00D2588307DC0EFF23A3409A438B07BB
:100890001B0E8407E40EA3401A43204B1C330407AD
:1008A000240F083CA408A4001A5118E0234A03238B
:1008B0001B02D21883089B00D2588307DC0EFF234B
:1008C000A3409A438B071B0E8407E40EA3401A43F0
:1008D0001A4B032424021B198408A4001A5110BDCA
:1008E0000D000020F0060020F0050020180900206F
:1008F000D80300202117010023170100400A00201F
:10090000E2090000221701009000002009000020E9
:10091000400000206C0B00200400FA0500ED00E010
:100920005AA5000000F00040FF5F0000EFFF00004C
:1009300025632E25632E25630000000000E100E002
:1009400010B501200BF071FE01280ED10BF077FEDF
:10095000FB48406984B2E007C00F002805D103F0CE
:100960002AF902F03EFF03F01FF902200BF05DFEB2
:10097000012802D102200BF062FE04200BF055FE8C
:10098000012802D104200BF05AFE08200BF04DFE86
:10099000012802D108200BF052FE10BD704710B59F
:1009A000FF2001300BF0D3FB012802D100020BF035
:1009B000E2FB01200BF0D5FB012801D10BF0E4FB99
:1009C00010BD10B5012040020BF0C1FB012802D17F
:1009D00040020BF0D0FB02200BF0C3FB012802D138
:1009E00002200BF0D1FB10BD10B5012080020BF0EE
:1009F000AEFB012802D180020BF0BDFB04200BF0FE
:100A0000B0FB012802D104200BF0BEFB10BD10B5D5
:100A10000120C0020BF09BFB012802D1C0020BF0A9
:100A2000AAFB08200BF09DFB012802D108200BF047
:100A3000ABFB10BD10B5012000030BF088FB0128B3
:100A400002D100030BF097FB10200BF08AFB01286A
:100A500002D110200BF098FB10BD10B5012040030F
:100A60000BF075FB012802D140030BF084FB202022
:100A70000BF077FB012802D120200BF085FB10BD85
:100A800010B5012080030BF062FB012802D1800326
:100A90000BF071FB40200BF064FB012802D14020D9
:100AA0000BF072FB10BD10B50121A6480CF027F920
:100AB000012806D10121A3480CF02AF9A14802F02F
:100AC000DCFF02219F480CF01AF9012806D102210F
:100AD0009C480CF01DF99B4802F0B5FF10BD10B505
:100AE000012199480CF00BF9012803D10121964806
:100AF0000CF00EF9022194480CF001F9012803D101
:100B0000022191480CF004F910BD10B501218F4865
:100B10000CF0F5F8012803D101218C480CF0F8F80D
:100B200002218A480CF0EBF8012803D10221874802
:100B30000CF0EEF810BD10B5012185480CF0DFF87F
:100B4000012806D1012182480CF0E2F8804802F029
:100B500094FF02217E480CF0D2F8012806D1022130
:100B60007B480CF0D5F87A4802F06DFF01217848F7
:100B70000CF0DFF8012803D1012175480CF0E2F8F0
:100B8000022173480CF0D5F8012803D102217048E6
:100B90000CF0D8F804216E480CF0CBF8012803D1F2
:100BA00004216B480CF0CEF810BD10B50121694846
:100BB0000CF0A5F8012803D1012166480CF0A8F833
:100BC000022164480CF09BF8012803D102216148FE
:100BD0000CF09EF801215F480CF0ABF8012803D11E
:100BE00001215C480CF0AEF802215A480CF0A1F843
:100BF000012803D1022157480CF0A4F804215548DC
:100C00000CF097F8012803D1042152480CF09AF80F
:100C100010BD10B5012188070CF071F8012803D12F
:100C2000012180070CF074F8022148070CF067F8E6
:100C3000012803D1022180070CF06AF810BD10B51D
:100C4000012145480BF0D9FF012803D10121424879
:100C50000BF0DCFF022140480BF0CFFF012803D14D
:100C600002213D480BF0D2FF04213B480BF0C5FFA9
:100C7000012803D1042138480BF0C8FF10BD10B57E
:100C8000012136480BF0B9FF012803D10121334877
:100C90000BF0BCFF022131480BF0AFFF012803D15C
:100CA00002212E480BF0B2FF04212C480BF0A5FFC7
:100CB000012803D1042129480BF0A8FF10BD10B56D
:100CC000012127480BF099FF012803D10121244875
:100CD0000BF09CFF022122480BF08FFF012803D16B
:100CE00002211F480BF092FF04211D480BF085FFE5
:100CF000012803D104211A480BF088FF10BD10B55C
:100D0000012118480BF079FF012803D10121154872
:100D10000BF07CFF022113480BF06FFF012803D179
:100D2000022110480BF072FF04210E480BF065FF02
:100D3000012803D104210B480BF068FF10BD00000F
:100D400000F400400050004000600040007000408F
:100D50000080004000900040001000400020004053
:100D6000003000400040004010B501200BF010FFA3
:100D7000012801D10BF016FF02200BF009FF01281A
:100D800002D102200BF00EFF08200BF001FF01281A
:100D900002D108200BF006FF10200BF0F9FE01280D
:100DA00002D110200BF0FEFE40200BF0F1FE0128D6
:100DB00002D140200BF0F6FE04200BF0E9FE0128E2
:100DC00002D104200BF0EEFE10BD1B498968C8B2A9
:100DD0000021194A9160C107C90F002906D017499F
:100DE0000978082291430831144A11700221014008
:100DF000002906D0114909781022914310310F4A79
:100E000011707047704710B501210D480BF030FE8E
:100E1000012803D101210A480BF033FE08210848BC
:100E20000BF026FE012803D1082105480BF029FE0E
:100E300010BD70477047704700C000400900002097
:100E400000B0004030B50246384CA01800232AE01C
:100E50000478A406E40F002C17D00478E406E40E0E
:100E6000002C12D004786409640105786D1EED062B
:100E7000ED0E2C4304700478E406E40E002C04D13B
:100E800004784025AC43403404700478A406E40F91
:100E9000002C03D104786409640104705C1CE3B283
:100EA000401C541CA2B28B42D2DB30BD30B503468D
:100EB0001E4CE018002900D130BD0478640964019B
:100EC000D506ED0E2C43047004784025AC43047025
:100ED00004788025AC43047000BFEDE770B503468D
:100EE000124CE01800290ED105782026B543057074
:100EF000AD06ED0FAD01402635402C460578B543D3
:100F00002543057010E00478A406E40F002C0BD1F3
:100F1000047864096401D506ED0E2C43047004784E
:100F20002025AC432034047070BD000090000020E8
:100F30001CB5012102200BF07FF88021684601706A
:100F400008214170042181700021C1700821818035
:100F50000BF0BAFA1CBD01780F4A116142780E49B4
:100F60004A6182788A61C278CA6102790A624279EA
:100F70004A6282798A64C2798A65027ACA65427A4B
:100F80008A67827ACA67C27A034990314A60027BD3
:100F90008A60427BCA60704700D000407047000002
:100FA0000448804704480047FEE7FEE7FEE7FEE707
:100FB000FEE7FEE79D0F0000C10000007047000043
:100FC00012FFFFFF70B50246774CA0180B460DE0EC
:100FD00004788025AC4305786D06ED0FED01802681
:100FE00035402C4304705C1EA3B2401C002BEFD193
:100FF00070BD704770B56D4804686B492531012399
:101000000020024617E02046184000280ED00D7838
:101010004026B54340350D706D06ED0FED0180267D
:10102000354028460D78B54305430D70501CC2B2BB
:101030005B00481C0146202AE5D370BD10B572B68E
:1010400004225B495B480CF03BF959480078C00723
:10105000C00F00280AD15448C07F4006C00F0028A6
:1010600006D05148C07FC009002801D1012000E00E
:101070000020C007C00F4F490978490849000843BC
:101080004C4908704A4800788007C00F00280AD1F0
:101090004548C07F4006C00F002806D04248C07FA8
:1010A000C009002801D1012000E0002040000221F9
:1010B0000840404909780222914308433D4908709D
:1010C0003B4800784007C00F00280AD13648C07F4F
:1010D0004006C00F002806D03348C07FC009002852
:1010E00001D1012000E000208000042108403149A6
:1010F00009780422914308432E49087004212C48A2
:101100000CF0F7F862B62B4800788007C00F002873
:1011100009D029480078C043002801D0012000E010
:1011200000202549087010BD224800784008400082
:101130002049087008460078022188431D4908703C
:1011400008460078042188431A4908700846007848
:101150000821884317490870084600781021884301
:1011600014490870084600784021884311490870E6
:1011700008460078802188430E490870704710B5F2
:10118000002404E0002008490855601C84B23C2C6F
:10119000F8DBFFF72FFF0448C07F40218843403031
:1011A0000149C87710BD0000900000200400002015
:1011B000090000200D0000200000002000BF411E9B
:1011C0000800FCD170470146FE480A1810687047B5
:1011D0000146FD480A181088704710B50020FFF737
:1011E000F7FFFA4988870420FFF7F2FFF749C8871D
:1011F0000820FFF7EDFFF549403108800C20FFF78C
:10120000E7FFF249403908801020FFF7E1FFEF497E
:10121000403948801420FFF7DBFFEC4940398880D3
:101220001820FFF7D5FFE9494039C8801C20FFF797
:10123000CFFFE649403908812020FFF7C9FFE34985
:10124000403948812420FFF7C3FFE04940398881B5
:101250002820FFF7BDFFDD494039C8812C20FFF76A
:10126000B7FFDA49403908823020FFF7B1FFD7498C
:10127000403948823420FFF7ABFFD4494039888297
:101280003820FFF7A5FFD1494039C8823C20FFF73D
:101290009FFFCE49403908834020FFF799FFCB4993
:1012A000403948834420FFF793FFC8494039888379
:1012B0004820FFF78DFFC5494039C8834C20FFF710
:1012C00087FFC249403908845020FFF781FFBF499A
:1012D000403948845420FFF77BFFBC49403988845B
:1012E0005820FFF775FFB9494039C8845C20FFF7E3
:1012F0006FFFB649403148806020FFF769FFB3496E
:10130000403188806420FFF763FFB0494031C880D6
:101310006820FFF75DFFAD49403908856C20FFF775
:1013200057FFAA49403948857020FFF751FFA74968
:10133000403988857420FFF74BFFA4494039C885A0
:101340007820FFF745FFA149403908867C20FFF748
:101350003FFF9E49403948868020FFF739FF9B496F
:10136000403988868420FFF733FF98494039C88682
:101370008820FFF72DFF9549403908878C20FFF71B
:1013800027FF9249403948879020FFF721FF8F4976
:10139000403988879420FFF71BFF8C494039C88764
:1013A0009820FFF715FF894908809C20FFF710FF60
:1013B00086494880A020FFF70BFF84498880A4203D
:1013C000FFF706FF8149C880A820FFF701FF7F498A
:1013D0000881AC20FFF7FCFE7C494881B020FFF774
:1013E000F7FE7A498881B420FFF7F2FE7749C88179
:1013F000B820FFF7EDFE75490882BC20FFF7E8FE34
:1014000072494882C020FFF7E3FE70498882C420F9
:10141000FFF7DEFE6D49C882C820FFF7D9FE6B4991
:101420000883CC20FFF7D4FE68494883D020FFF71B
:10143000CFFE66498883D420FFF7CAFE6349C8837C
:10144000D820FFF7C5FE61490884DC20FFF7C0FE05
:101450005E494884E020FFF7BBFE5C498884E420B5
:10146000FFF7B6FE5949C884E820FFF7B1FE574997
:101470000885EC20FFF7ACFE54494885F020FFF7C3
:10148000A7FE52498885F420FFF7A2FE4F49C88580
:10149000F820FFF79DFE4D490886FC20FFF798FED7
:1014A0004A494886FF200130FFF792FE4749888667
:1014B000FF200530FFF78CFE4449C886FF20093025
:1014C000FFF786FE4149088700242CE0E1004048F0
:1014D000405AFF382138002804D001280CD00228B7
:1014E0001ED113E0E2003A49511848680BF060FF42
:1014F00036494031886013E0E200354951184868A8
:101500000BF056FF31494031C86009E0E200304934
:10151000511848680BF04CFF2C494031086100BF5E
:1015200000BF601C84B2032CD0DB10BD264BC21858
:101530001180704770B505460E46002409E0E200B0
:101540005219928891B2E200A85AFFF7EFFF601C8F
:1015500084B2B442F3DB70BD10B5FFF73EFE0E213E
:101560001B487038FFF7E6FFFFF737FE10BD10B5D8
:1015700018481949086019480068012108431749AB
:1015800008600020104988601549087015490870E6
:10159000154908701549087015480068401C002856
:1015A00004D1134908601348FFF708FE054840308E
:1015B000006A11490860002010490860104908605D
:1015C00001201FE00030014000380140F40D0020F0
:1015D00070D800005AA5000000F00040001601403D
:1015E0001400002015000020240000202600002008
:1015F00028000020050D00002C00002030000020F5
:1016000034000020FC4908700020FC490870FC48A8
:101610004069C007C00F002811D00020F6490870AB
:10162000F848C06A0121C9030843F649C862FFF7B8
:1016300093FF8420FFF7C7FD81B2F348818210BD7C
:1016400070B50A46961EF3B20024002104E0465C01
:101650003619B4B24E1CF1B29942F8DBC5182C8091
:1016600070BD70B501463B23981EC6B2002400220F
:101670000D4605E02888001984B2501CC2B2AD1C8A
:101680009A42F7DB9420405AA04201D1012070BD5C
:101690000020FCE710B5DC488038FFF7E2FF0128A6
:1016A00002D1FFF759FF0FE0D7488038FFF7D9FF85
:1016B000012802D1FFF750FF06E0FFF78EFD9621CB
:1016C000D1488038FFF7BCFF10BD10B5CE48803838
:1016D000FFF7C7FF012802D1FFF73EFF06E0FFF743
:1016E0007CFD9621C8488038FFF7AAFF10BD10B5D1
:1016F000C5488038FFF7B5FF012802D1FFF72CFF5E
:1017000006E0FFF76AFD9621BF488038FFF798FF93
:1017100010BD10B5BC488038FFF7A3FF012802D1E7
:10172000FFF71AFF06E0FFF758FD9621B64880380C
:10173000FFF786FF10BD704730B50B468364402429
:10174000245C641CE5B240242554102D01DB0025E7
:1017500025544024245CA40003510022002104E00D
:101760008C000459A2184C1CE1B21029F8DB1209B4
:10177000426430BD70B5A548C0690102090AA44899
:10178000FFF7DAFFA249486C0BF012FE05469E48AF
:10179000816828460EF034FC04460EF00FFE9C498A
:1017A000886472B69A48806C9A49088062B670BDA7
:1017B000F0B587B094488038FFF753FF012807D071
:1017C00095480078002803D1FFF7D1FE07B0F0BD9F
:1017D0008E48C1698E48FFF7AFFF8D49486C0BF00A
:1017E000E7FD06468848816830460EF009FC05464C
:1017F0000EF0E4FD864988648448416984484C3091
:10180000FFF79AFF82494C31486C0BF0D1FD064638
:101810007D48C16830460EF0F3FB05460EF0CEFD64
:101820007B494C3188647948446A002C00DA644270
:10183000214677484C38FFF77FFF734908690EF05F
:101840002DFE0191009072494C39486C0EF0A8FDB4
:101850000546019B009A0EF0C3FC00226F4B0391DA
:1018600002900EF025FD059104900EF0F9FD6849F7
:101870004C3988646548846A002C00DA6442214649
:1018800063489830FFF758FF6149896C604A4C32D1
:10189000926C514308467D21C9000BF0FDFC0746C0
:1018A0005B484C38806C022805DC7D20C00058491C
:1018B0007839C88415E056494C39896C6422514303
:1018C000084639460BF0D2FC00B251497839C88439
:1018D0002620085E7D21C900884202DD4C48783808
:1018E000C1844B484C38806C4949C831898B884247
:1018F00032DA47494C31886C002801DB014600E0B0
:101900004142474A528D914226DA002040494C39E3
:101910008864983188647D20C000C439C884084632
:10192000C03800680121490388433E4908600846E1
:1019300040300078002802DA002040310870394831
:10194000406C10218843374948640846406C0121A7
:101950000904884333494864324800888004C00F32
:1019600000280DD02A487838C08C404200B228495F
:101970007839C88408462C30806C40422C31886409
:1019800000BF23E770B51C20FFF71DFC0546284665
:101990000BF00EFD06461C48816830460EF030FB09
:1019A000044620460EF023FD70BD70B51420FFF7ED
:1019B0000AFC054628460BF0FBFC06461248C168A7
:1019C00030460EF01DFB044620460EF010FD70BDA3
:1019D00070B52420FFF7F7FB054628460BF0E8FC1E
:1019E00006460948016930460BF0A5FC044620462E
:1019F0000EF0FDFC70BD0000380000202500002026
:101A000000F4004000F00040340E0020003001409F
:101A1000400A00204200002044000020D012634110
:101A2000000C0100080900201FB5FE48C06A81B201
:101A300068460180FB48406881B268464180F948A9
:101A4000C06981B268468180FEF7C0FE6820FFF75A
:101A5000BFFB01466846C1807420FFF7B9FB014611
:101A600068460181D420FFF7B3FB014668464181F7
:101A70005420FFF7ADFB0146684681819820FFF7AF
:101A8000A7FB01466846C1810C216820FFF74EFD87
:101A9000E5499820FFF74AFD2321D420FFF746FDB2
:101AA0000F2189017420FFF741FDE0495420FFF721
:101AB0003DFDDF48FFF782FB1420FFF784FBDD4983
:101AC00008606846C1886820FFF730FD68460189D4
:101AD0007420FFF72BFD68464189D420FFF726FDCF
:101AE000684681895420FFF721FD6846C189982006
:101AF000FFF71CFDD048CB4908606846408880212C
:101B00000843C849486068468088C86168460088BC
:101B1000C862C848006804B010BDFEB5FFF784FF76
:101B200005460BF045FC0446C448016820460BF00E
:101B300002FC0290C24902980EF062FAC14900907C
:101B40000BF0F9FB01900EF0A9FC0446BE4ABF4B16
:101B50000EF046FB06460EF0B5FC029002980EF021
:101B600046FC040C2146BC20FFF7E0FC02980EF076
:101B70003EFC84B22146C020FFF7D8FCBC20B4490B
:101B80008860FEBD70B5B348056AB34800688542F9
:101B900005D2B1480068B149081A461902E0AE48BA
:101BA00000682E1AAC480560AD4800688019AC4941
:101BB000086009687D22D200514308461921890135
:101BC0000BF054FB0446002C07D00020A449086009
:101BD000A44800680019A3490860A3480068801958
:101BE000A149086009687D22D200514308461921A5
:101BF00089010BF03BFB0446642C02D300209A4978
:101C0000086070BDFEB504460D460120C0032840A3
:101C1000002804D0261DB71D0120009004E02646B0
:101C20002746083700200090EDB23888401985B269
:101C30008E49888C64210BF02FFB0290029885421C
:101C400017D3284602990BF011FB019031680198D7
:101C500008183060284602990BF008FB398000987C
:101C6000002803D021680198081820600198C0B2AC
:101C7000FEBD3D800020FBE700B57D48818F002040
:101C8000FFF754FC7A48C18F0420FFF74FFC7848D7
:101C9000403001880820FFF749FC7548403801882A
:101CA0000C20FFF743FC7248403841881020FFF7B2
:101CB0003DFC6F48403881881420FFF737FC6C48A2
:101CC0004038C1881820FFF731FC69484038018945
:101CD0001C20FFF72BFC6648403841892020FFF785
:101CE00025FC6348403881892420FFF71FFC6048A9
:101CF0004038C1892820FFF719FC5D484038018A27
:101D00002C20FFF713FC5A484038418A3020FFF757
:101D10000DFC57484038818A3420FFF707FC5448AF
:101D20004038C18A3820FFF701FC51484038018B08
:101D30003C20FFF7FBFB4E484038418B4020FFF72B
:101D4000F5FB4B484038818B4420FFF7EFFB4848B8
:101D50004038C18B4820FFF7E9FB45484038018CEB
:101D60004C20FFF7E3FB42484038418C5020FFF7FE
:101D7000DDFB3F484038818C5420FFF7D7FB3C48BF
:101D80004038C18C5820FFF7D1FB3948403041889A
:101D90005C20FFF7CBFB3648403081886020FFF79E
:101DA000C5FB33484030C1886420FFF7BFFB304893
:101DB0004038018D6820FFF7B9FB2D484038418D30
:101DC0006C20FFF7B3FB2A484038818D7020FFF765
:101DD000ADFB27484038C18D7420FFF7A7FB24488E
:101DE0004038018E7820FFF7A1FB21484038418E12
:101DF0007C20FFF79BFB1E484038818E8020FFF738
:101E000095FB1B484038C18E8420FFF78FFB184894
:101E10004038018F8820FFF789FB15484038418FF3
:101E20008C2027E000F00040A7E7000007860000B4
:101E3000FF5F0000200000205AA500001C000020C9
:101E400000409C453454BE4A5305A3923A01E93FF1
:101E500000390140403001402C000020FFFFFF000E
:101E6000300000202800002034000020000C010079
:101E7000F40D0020FFF75AFBFE48818F9020FFF7FA
:101E800055FBFC48C18F9420FFF750FBF9484030C8
:101E900001889820FFF74AFBF648403041889C2093
:101EA000FFF744FBF34840308188A020FFF73EFB5A
:101EB000F0484030C188A420FFF738FBED4840309F
:101EC0000189A820FFF732FBEA4840304189AC2065
:101ED000FFF72CFBE74840308189B020FFF726FB55
:101EE000E4484030C189B420FFF720FBE14840308E
:101EF000018AB820FFF71AFBDE484030418ABC2037
:101F0000FFF714FBDB484030818AC020FFF70EFB4F
:101F1000D8484030C18AC420FFF708FBD54840307C
:101F2000018BC820FFF702FBD2484030418BCC2008
:101F3000FFF7FCFACF484030818BD020FFF7F6FA4C
:101F4000CC484030C18BD420FFF7F0FAC94840306C
:101F5000018CD820FFF7EAFAC6484030418CDC20DB
:101F6000FFF7E4FAC3484030818CE020FFF7DEFA47
:101F7000C0484030C18CE420FFF7D8FABD4840305B
:101F8000018DE820FFF7D2FABA484030418DEC20AD
:101F9000FFF7CCFAB7484030818DF020FFF7C6FA42
:101FA000B4484030C18DF420FFF7C0FAB14840304A
:101FB000018EF820FFF7BAFAAE484030418EFC207F
:101FC000FFF7B4FAAB484030818EFF200130FFF7B5
:101FD000ADFAA8484030C18EFF200530FFF7A6FAC1
:101FE000A4484030018FFF200930FFF79FFA84207A
:101FF000FFF7E9F881B29F488030818200BDF0B5DB
:1020000089B09D48808C9B49098C484307909A4829
:10201000008D9949498D48430690974A118D974AFA
:10202000526C974B1B885A4310460BF01FF90890CF
:102030009348018808980BF019F906460BF0B8F997
:102040008C49803188608D49486C0BF0B1F90746A6
:1020500088488030816838460DF0D2FF06460EF081
:10206000ADF986498864844A528D64235A431146E7
:10207000824A4C32526C824B1B885A43804B1B88DD
:102080005A4310460BF0F2F808907D480088404310
:10209000014608980BF0EAF806460BF089F97549F5
:1020A0008031C86075494C31486C0BF081F90746A6
:1020B00070488030C16838460DF0A2FF06460EF029
:1020C0007DF96E494C3188646E4800680EF068F9FD
:1020D000064600226C4B0EF083F804460D46079826
:1020E0000EF05EF9064632460B46204629460EF0B3
:1020F000DFF804460D46204629460EF0B1F90646A3
:102100000BF056F95B49803108615C484C38406CF3
:102110000121C9050840002807D058484C38406CB8
:102120005A49081A55494C3948645249803108695E
:102130000EF0B4F906460F4650494C39486C0EF083
:102140002FF932463B46019100900EF049F80022EB
:102150004F4B039102900EF0ABF8059104900EF0F6
:102160007FF946494C39886409B0F0BDF0B513B425
:102170008AB04148808C3F49098C484309903E48C9
:10218000008D3D49498D484308903B4A118D3B4A9B
:10219000526C3B4B1B885A4310460BF067F80746BE
:1021A0003748018838460BF061F807900BF000F9CA
:1021B0003049803188603149486C0BF0F9F806905D
:1021C0002C488030816806980DF01AFF07900EF0B9
:1021D000F5F82A498864284A528D64235A431146E7
:1021E000264A4C32526C264B1B885A4310460BF041
:1021F0003DF807462248018838460BF037F807902B
:102200000BF0D6F81B498031C8601C494C31486C32
:102210000BF0CEF8069017488030C16806980DF094
:10222000EFFE07900EF0CAF814494C318864154847
:1022300000680EF0B5F80022134B079106900DF0E0
:10224000CFFF05460E4609980EF0AAF802460B4647
:1022500007910690284631460EF02AF805460E46AC
:10226000284631460EF0FCF807900BF0A1F8014922
:1022700080310FE0B40D0020000C0100400A002066
:10228000261701004C00002000408F40FFFFFF0098
:10229000D01263410861F048406CC00FC0070028AD
:1022A00006D0ED48406C0021C943081AEA49486449
:1022B000EA4908690EF0F2F803910290E649486C89
:1022C0000EF06EF801910090039B029A0DF088FFCA
:1022D0000022E34B059104900DF0EAFF0791069070
:1022E0000EF0BEF8DC498864DC4908690EF0D6F8C7
:1022F00003910290D849E431486C0EF051F80191F5
:102300000090039B029A0DF06BFF0022D44B0591C5
:1023100004900DF0CDFF079106900EF0A1F8CE4984
:10232000E4318864886C0BF04BF8019100900B9BB2
:102330000A9A0DF055FF05910490C749886C0BF07F
:102340003FF803910290059B049A0DF097FE0791C8
:1023500006900EF061F8C049886408984008896CBE
:10236000441A002C00DA7F4208988008B8420BD942
:10237000E403B948816C20460AF08EFF0446B74951
:1023800080390C80FFF778FC0DB0F0BDF0B58DB052
:10239000B448008DB349498D484340080C90B14979
:1023A000098DB04A528D5143AF4A514308467D21B1
:1023B000C9000AF05BFF0B90A748E430406CC00FE7
:1023C000C007002808D0A448E430406C0021C9436D
:1023D000081AA149E43148649F48406CC00FC00707
:1023E000002806D09C48406C0021C943081A9A492D
:1023F00048649949E431486C0AF0E2FF0391029085
:102400000C980DF0CDFF01910090039B029A0DF006
:10241000E7FE0022954B059104900DF049FF04461C
:102420000D468D49486C0DF0BBFF039102900B984F
:102430000DF0B6FF01910090039B029A0DF0D0FEC3
:1024400000228A4B059104900DF032FF099108900B
:102450008149486C0DF0A4FF039102900C980DF097
:102460009FFF01910090039B029A0DF0B9FE00229C
:102470007E4B059104900DF01BFF06460F467649F2
:10248000E431486C0AF09CFF039102900B980DF028
:1024900087FF01910090039B029A0DF0A1FE00229C
:1024A000724B059104900DF003FF079106902046B2
:1024B0002946099B089A0DF085FE04460D463046D4
:1024C0003946079B069A0DF0D9FD06460F4632465F
:1024D0003B46204629460DF0EBFE04460D462046BD
:1024E0002946FFF743FE0022614B204629460DF0A6
:1024F00077FE04460D46204629460DF08DFF0A90D2
:10250000564980390A98C880FFF7B6FB0DB0F0BD78
:1025100070B588B05348808C50498039098C484345
:1025200007905049098D4F4A528D51438A008818AF
:1025300064210AF09BFE0690484908690DF0AEFF41
:102540000391029006980DF02BFF05460022444BA4
:102550000DF046FE01910090039B029A0DF0A8FE3B
:1025600005910490059904980DF056FF04463A48E9
:10257000406C241A002C06DBFF2C01DD08B070BD76
:10258000364980390C86002C07DAFF340134FF2FDE
:1025900000D9F3E7314980390C86FFF76DFB00BFA6
:1025A000ECE73EB50446334A07CA6B4607C33249D7
:1025B000684600F074F9012806D188222E49204689
:1025C00009F0FCFD00203EBD0120FCE710B5A2B0E3
:1025D0008822294968460AF073FE00240AE0E100D7
:1025E0006A46505AFEF7F4FDE1006A4689184860D1
:1025F000601C84B20E2CF2D3184988680DF0F7FEE7
:102600001D901649C8680DF0F2FE1F901349086925
:102610000DF0EDFE01461CA841616846FFF7C1FFC1
:1026200022B010BD70B504460D46AA21FF2015301A
:10263000FEF77CFF7D20C00003F006FE5521FF2041
:102640001530FEF773FF7D20C00003F0FDFD0E2165
:102650000948FEF76FFF70BDF4090020340E00201A
:10266000D0126341000C0100620300000088C340E7
:102670000000E0401417010000D8000010B5024629
:102680000B460021FF2403E0505C0440481C81B24B
:102690009942F9DBFF2C01D1012010BD0020FCE79D
:1026A00010B501460C79A41EA3B20022002005E05B
:1026B0000C68A45C2418A0B2541CA2B29A42F7DBA6
:1026C00010BD70B5044621792068FFF7D7FF064694
:1026D00000206071012E01D1607970BD2046FFF7A6
:1026E000DFFF401C85B201206071E089A84201D063
:1026F0006079F2E7022060716079EEE703468B4271
:1027000001D1002070478B4208DD501E984203D152
:10271000002901D10020F5E70120F3E70020F1E7CF
:1027200010B501460C79241FA3B20020002205E059
:102730000C68245CA418A2B2441CA0B29842F7DB37
:10274000002006E00C460C34245CA418A2B2441C01
:10275000A0B20228F6D3541CCC8110BD30B5106055
:1027600011714418231F1C7814735C785473441837
:10277000A31E1D7895735D78D57330BDF0B589B013
:1027800004460D462F4610372189A0880AF084FDA3
:1027900080B20090FF22102101A80AF0A3FDFF22C1
:1027A000202128460AF09EFD0026002006904CE0DD
:1027B000A0887043216808180890002007903DE029
:1027C000218901AA0898FFF7C9FF01A8FFF779FF3F
:1027D00005900598002812D001280FD0022824D196
:1027E0000698002801D10120069028460FC80FC77F
:1027F000103F01A80FC80FC5103D17E016E006985E
:1028000001280AD128460FC80FC7103F01A80FC8DA
:102810000FC5103D012009B0F0BDA08870432168AC
:1028200009180898814200D10DE000BF0798401CAC
:1028300080B2079021890898081808900099079895
:102840008842BDDB00BF701C86B2E088B042AFDCBE
:102850000698002809D121892A462068FFF77EFFC3
:102860002846FFF72EFF0120D5E7E088B04214DCB0
:102870002189A0880AF010FD079988420DDC2846BE
:102880000FC80FC7103F21892A462068FFF766FF4F
:102890002846FFF716FF0120BDE70020BBE7F8B58B
:1028A00005460E460027002409E0304609F028FDC1
:1028B000A9883046FFF7E2FE0746601C84B2002F6D
:1028C00001D1022CF1DB022C01DB0020F8BD01203C
:1028D000FCE7F3B58DB0044604AD08A80390294683
:1028E0002046FFF74BFF0C902868029000272668CF
:1028F0000CE00298B04205D3A08881190298814269
:1029000000D906E0781C87B2A0888619E088B84212
:10291000EFDC00BFE088B84202DC00200FB0F0BD61
:10292000A0888619218902980818019021890198A8
:10293000301A814214D9781C87B2E18838460AF0EF
:10294000ABFC8FB2A088784321680E183146204630
:10295000FFF7A5FF0C900C98012801D00020DDE7BF
:102960000E982860207A287103988089A881A88908
:10297000401CA8816189A8890AF08EFCA98128469B
:10298000FFF7CEFE29790A1F2868029909F016FC84
:102990002A7902981018011F042228460C3009F0E9
:1029A0000DFC0020BAE7F8B5044600250EE0A0882B
:1029B000684321680F1839462046FFF770FF064626
:1029C000012E01D00020F8BD681C85B2E088A84225
:1029D000EDDC0120F7E710B588221749174809F008
:1029E00082FA012010BD10B5FF22F53214491548B6
:1029F00009F079FA012010BD10B5134C1348007886
:102A000055280ED111484078AA280AD12046FFF750
:102A1000CAFFFFF7E0FFFFF7E6FF0C492046FFF78C
:102A20003EFF10BD10B5084C2046FFF7BCFF07491C
:102A30002046FFF734FF10BDB417010000D8000096
:102A40000010010000DC0000A817010000D4000005
:102A500070B5FE4BC217520F1218D210FF24C134AA
:102A6000A24214D20146C417640F6418E4101C5D1E
:102A70000246C5176D0FAD18ED10ED00461B012580
:102A8000B5402C43C5176D0F6D18ED105C5570BD2A
:102A9000F8B506460F46EE48805D0090F800C01B72
:102AA000EC49451800241BE000982041C007C00FE6
:102AB000002803D0285DFFF7CBFF0FE0285D401111
:102AC0008100E2484058295DCA06D20E012191409A
:102AD0008843295D49118A00DC498850601CC4B2D2
:102AE000072CE1DBF8BD30B585B005466C461422F5
:102AF0002946204602F0BCFA2078002804D16078EC
:102B0000002801D105B030BD32E02078FE2810D178
:102B1000641CD148C06FC001C00F002805D1CE4849
:102B2000C06FC003C00F00281CD12078FFF790FFB2
:102B300018E02078FD2812D1641C20780007000FCF
:102B40000F2805D1207801111020FFF7A1FF09E01F
:102B5000227811111007000FFFF79AFF02E020788A
:102B6000FFF776FF20786178884200D1CAE7641CBD
:102B7000CBE7F0B585B0FF21C131B44801F09BFF30
:102B80000020C04302F020F800280AD1FF22C13201
:102B9000FF21AE4801F027FDAC48FEF7DCF905B097
:102BA000F0BDAD48C06F0002C00F00280FD0AA488A
:102BB000C06FC001C00F002809D1A748C06FC00373
:102BC000C00F002803D0A148FEF7C5F9E7E7684623
:102BD000A24908602022FF219F48403001F003FDF8
:102BE0009D48C06F0121C90488439B49C8670021E3
:102BF00099484030C1844030006802218843801CDD
:102C00009549803108600846203805F036F9924829
:102C100080300068022188438F498031086008466F
:102C20004038C08C072109020840002806D08A4895
:102C30004030C08C4005400F471C05E087480078B5
:102C40006946401A4006070E042001F0EEFC009D84
:102C5000002481484030C08C4007400F03000DF035
:102C600058FD085C050636375659075C00BF00BFA3
:102C700079484030C08C0821084000281CD0784892
:102C8000807F022818DA7648847F764801F09CFF1E
:102C900000280AD17048C06F0003C00F002804D17B
:102CA000002C01D1FF3500E00F350220001B810010
:102CB0002846C840054600E0022467484030C08CE2
:102CC00040210840002801D0601CC7B225E000BFA9
:102CD00061484030C08C0821084000280CD0604872
:102CE000C07F042808DA5E48C47F0420001B8100EE
:102CF0002846C840054600E0042457484030C08CB0
:102D000040210840002801D0601CC7B205E0012422
:102D1000022702E00324042700BF00BF002C05D0D7
:102D2000611E4C4A883A505CFFF792FE4A48403098
:102D3000C08C4007400F002814D047484030C08C5A
:102D40004007400F401EC4B2600042497739085A1C
:102D5000002807D061003F4A773A515A424A881802
:102D6000FFF7C1FE072407E02807000F2146FFF701
:102D70008FFE2D09601EC4B23846791ECFB20028DE
:102D8000F2D10AE0002D00D109E02807000F21460A
:102D9000FFF77EFE2D09601EC4B2002CF2DA00BFE0
:102DA0002D48C06F0003C00F002815D02A48006EC0
:102DB000000C90280DD1002C0BDB21461020FFF7D2
:102DC00067FEE100091B234A89188879FFF740FE56
:102DD00002E00620FFF73CFE1F48C06FC003C00F93
:102DE00000287DD01C4880300068C001C00F00283A
:102DF0002BD019484030C08C20210840002824D115
:102E00001748F038C07F0A2814DA1548F038C07F18
:102E1000401CC7B204260BE0B74207DB711E0D4A07
:102E20007B3A505CFFF714FEB81BC7B2701EC6B2E7
:102E3000002EF1DC6920FFF70BFE0C4801F0FCFED0
:102E4000002802D15920FFF703FE11E008070020F7
:102E50003D180100CF150100880800205400002013
:102E6000A804002000029000F41101005403002087
:102E7000FE48407D002858D0FD48C08C10210840F5
:102E8000002852D1FB48406E0078042814DAF84834
:102E90004038C06FC001C00F002806D1F44884300C
:102EA00080898005C00F002806D1F249496E097853
:102EB000F14A505CFFF7CCFDEC48B838C07C0128E3
:102EC00024D0EA48B030407902210840002810D1CF
:102ED000E6482030806C89040840002805D000E0D6
:102EE00033E05920FFF7B4FD1FE06920FFF7B0FD84
:102EF0001BE06920FFF7ACFDDC48683801F09CFE60
:102F0000002812D15920FFF7A3FD0EE0D74820304A
:102F1000806C0121C9040840002803D05920FFF724
:102F200097FD02E06920FFF793FDD1482030807BB8
:102F300000280AD0CE492031497B4900CE4A3032A0
:102F4000515ACE4A8818FFF7CEFDC948FFF7CBFD8E
:102F5000C74884300079C006C00F002811D0C4488B
:102F60004038C06F8001C00F002806D0BF48203015
:102F7000806C0221084000281ED00920FFF768FD60
:102F80001AE0BA4840304068002804D1B7482030E1
:102F9000006A002810D0B6484038C06FC001C00F8A
:102FA000002809D0B2484038C06FC003C00F0028C5
:102FB00002D00920FFF74CFDAD484030406C400482
:102FC000C00F00281CD0AA4840300088C005400F20
:102FD000042807DBA5482030806C012189050840C2
:102FE00000280AD0A2484038C06FC001C00F002896
:102FF00006D00620FFF72CFD02E00620FFF728FD93
:103000009B484030406CC003C00F002806D09C484D
:103010004069202108439A49486105E09848806941
:10302000202108439649886190482030806C012116
:103030000904084000280FD13120FFF709FD58206E
:10304000FFF706FD3020FFF703FD3220FFF700FDFC
:103050000620FFF7FDFC0EE0854860304078002830
:1030600009D083484038C06FC001C00F002802D08B
:103070000620FFF7EDFC7E484038C06FC001C00F4E
:10308000002806D17A484038C06FC003C00F00281E
:1030900013D177484030406C4007C00F002802D061
:1030A0000820FFF7D5FC724840300088C005400F6B
:1030B000002802D00620FFF7CBFC6C486038C07BAC
:1030C000032809DA69486038007C032804DA674875
:1030D0006038407CC82800DB00BF6A48FDF73BFF32
:1030E00000BF5CE5032810D161494039C96F420532
:1030F0009143012292058A185D494039CA67C72267
:1031000060318A720222CA722FE002280EDA584910
:103110004039C96F032252059143420503235B05E1
:103120001A401143524A403AD1670CE050494039A5
:10313000C96F0322520591430122920589184C4A16
:10314000403AD1670020002804D1002248492031AC
:103150008A7203E06322464920318A724349C131B1
:103160000A5C43492031CA72C87341494039C96F6A
:103170000122D20591433E4A403AD167704710B5CB
:1031800004463B484038C06F0121C905884338498F
:103190004039C8673C4801F017FD00280DD134487C
:1031A00020300079022808DA314820300079401CAC
:1031B000C1B22F48203001716FE0344801F004FDA6
:1031C000002810D12A48203001792848407D401E2F
:1031D000814208DA264820300079401CC1B22448D8
:1031E0002030017159E022484038C06F4002800F02
:1031F000012809D1002C07D10020FFF773FF00211F
:103200001B48203001731FE019482030007B401C10
:10321000C1B2174820300173C07A814214DB002C00
:103220000ED10020FFF75EFF11484030C07F00281C
:1032300006D00F484030C07F401E0D494031C8774E
:1032400000210B4820300173114A09482030C07B0F
:10325000FF23F0335843121805482030007B8300C9
:10326000C018101881B20522014813E0B8030020ED
:10327000C80800208805002050150100F411010045
:1032800000100140080700201FF100040706060691
:10329000260E0000203000F06AFF10BD10B5044675
:1032A0002046FFF71FFF8021E44801730120FFF74C
:1032B00066FFE3480178E148017210BD10B5E148AE
:1032C000807B032820DBDD486038C06F4002800F20
:1032D000012803D00120FFF7E1FF05E00120FFF7FF
:1032E00001FF0120FFF74BFF3C21D4480172D44875
:1032F0004F384178D148C1723C20D04920314877BD
:1033000000208877FFF735FC00F055FCCB4860388B
:10331000C06F20218843C9496039C86700F044FC68
:1033200010BD10B5C5486038C06F40218843C349FF
:103330006039C8670846C06FC002C00F002800D0BF
:1033400010BDBE482030C07F00280ED1BB48603879
:10335000C06F4002800F002807D1FFF79FFF0220B7
:10336000B6492031C877FFF704FC00BFE8E7B3484F
:103370006038C06FC003C00F00282AD0AF4820308B
:1033800000680001C00F002823D1AC486038C06F2E
:10339000C002C00F00281CD1A8482030807F002820
:1033A00017D1A748F038806C012109030840002894
:1033B0000ED1A2486038C06F8001C00F002807D02E
:1033C0009F48F038806C02210840002800D100E0BE
:1033D00000BF9A486038C06FC003C00F00280ED0ED
:1033E0009648203000680001C00F002807D193489C
:1033F0006038C06FC002C00F002800D100BF704706
:103400007FB505469048066868468F4908608B4836
:103410002030006802218843801C884920310860E0
:1034200000208A490874284604F027FD834820308C
:103430000068022188438149203108608248016880
:1034400001A8814202D9002004B070BD7E48006806
:103450006946884204D07C48016801A8814201D9AC
:10346000012400E00024784806602046ECE710B50F
:103470000146724A203212789207D20F002A01D0F8
:10348000002900D110BD002001E0421CD0B26B4ADF
:10349000203A145C431CD25C9442F6D1674A203A2D
:1034A000125CFF2A01D0421CD0B210E00B78634AB4
:1034B000203A1354491C0B78125C934205D10C78C6
:1034C0005E4A203A431CD45403E0421CD0B21E286A
:1034D000ECDB00BF00BFD5E710B5044621785748A4
:1034E0002038C184601CFFF7C2FF10BD30B505460F
:1034F0000C465248203000788007C00F002811D0B9
:1035000049214E482038C184042C04DC5048015D18
:103510004A48203801702846FFF7A9FF4C4843303D
:10352000FFF7A5FF30BD1CB50446052221466846BD
:1035300001F09EFD6846FFF763FF002800D01CBD28
:10354000052221463D4801F093FD3D4801783B4866
:1035500001726038C06F0121C9058843374960395D
:10356000C867FFF706FBFFF702FF00BFE7E701129E
:10357000072906D2314A51734200521CD3B22F4A56
:103580009373704710B53348334908602B48807BEC
:10359000002805D02948807B401EC1B2274881738E
:1035A0002E4800784007C00F00281DD02348203047
:1035B000807F002806D021482030807F401E1F4990
:1035C000203188771D482030407F002806D01B48D6
:1035D0002030407F401E1949203148771748007A33
:1035E000401EC1B215480172FFF7C3FA1348603894
:1035F000C06F01210905884310496039C867FFF78A
:10360000B6FE10BD10B5144800681249884205D0B6
:10361000FF22C132FF21124800F0E5FF1048FDF7FC
:103620009AFC0020FFF73AFE002004492031487739
:1036300010BD10B5FFF79DFA10BD0000E80800208E
:10364000C8040020480B002054000020F40400208F
:103650004B150100B83E2403080500200D00002092
:103660000807002070471CB5012168468170602161
:1036700001800021C1700121017169463F4808F0B5
:1036800083FE1021684681700C2101800021C170E9
:103690000121017169463A4808F076FE102168461A
:1036A00081702321090101800021C1700121017174
:1036B0006946344808F068FE0121684681700C2193
:1036C00001800021C1700121017169462D4808F077
:1036D0005BFE1021684681702B4901800021C1707A
:1036E000012101716946294808F04EFE1021684603
:1036F00081700C2101800021C17001210171694696
:10370000234808F041FE1121684681700321890396
:1037100001800021C1700121017169461C4808F037
:1037200033FE1021684681703F210902018000218B
:10373000C170012101716946154808F025FE10216C
:1037400068468170090201800021C1700121017168
:1037500069460A4808F018FE112168468170FF2169
:10376000813101800021C170012101716946034846
:1037700008F00AFEFFF776FF1CBD000000100140B4
:1037800000120140001401407F4000000011014080
:10379000001301401CB504216846417001210171EC
:1037A000032181700821C1700621817100214171BE
:1037B00008F0ACFE0121084608F027FF0321002095
:1037C00000F047F80020012181403D4A116000BF10
:1037D0001CBD3C480088052801DB01207047002003
:1037E000FCE7394A5269D007C00F002805D1374A93
:1037F000128819235B019A4201DD354A00E000225C
:103800001146002912D0334A1288052A04DA314AB7
:103810001288521C2F4B1A802A4A1288002A17D06D
:10382000284A1288521E274B1A8011E0254A128816
:10383000052A04DA234A1288521C224B1A80254A90
:103840001288002A04D0234A1288521E214B1A8063
:10385000704710B5002819DA1F4A03071B0F083BF1
:103860009B089B00D2588307DC0EFF23A3409A439A
:103870008B071B0E8407E40EA3401A43164B040764
:10388000240F083CA408A4001A5118E00C4A032392
:103890001B02D21883089B00D2588307DC0EFF233B
:1038A000A3409A438B071B0E8407E40EA3401A43E0
:1038B000034B032424021B198408A4001A5110BDD1
:1038C00000E100E04000002000F400404200002041
:1038D000FFFF00003E0000201CED00E01FB5044685
:1038E00000216846018041808021017140214171A1
:1038F000029401210173417369469E4809F08CF9D5
:103900009C484068082108439A4948600846406836
:1039100004218843974948601FBD1FB501218020BD
:1039200008F0A5FB03210C2000F0EDF80C2000F0BE
:10393000D4F80121102008F09AFB0021684601808C
:1039400041800171402141714B20400102900121D1
:103950006846017341736946874809F05DF91FBDE8
:103960000FB410B504468448844204D101211020CC
:1039700008F07DFB06E07F48844203D101218020CE
:1039800008F075FB03A9204609F046F910BC08BCF5
:1039900004B01847F8B504460E461746251D28887A
:1039A00004218843002E01D0012100E0002189007C
:1039B0000422114008432880288808218843002FCA
:1039C00001D0012100E00021C90008221140084374
:1039D00028806948844203D1092000F07EF805E080
:1039E0006448844202D10C2000F077F8F8BD10B58D
:1039F00004466148844203D1092000F075F805E0CF
:103A00005C48844202D10C2000F06EF810BD70B505
:103A100005462C4614345848854208D12088400871
:103A20004000401C2080092000F066F80AE0514860
:103A3000854207D1208840084000401C20800C208F
:103A400000F05AF870BD70B50446204607F017FD27
:103A5000FF2125314843494945182069C6B23146FE
:103A6000284607F01DFD2878C009002804D0002250
:103A700011462046FFF78EFF70BD70B506463046F2
:103A800007F0FDFCFF21253148433C4944182078CC
:103A9000C006C00E102814DA204607F0B4FD054613
:103AA0003561207B401EC0B22073002814D12078DD
:103AB000400940012178491CC906C90E08432070FD
:103AC0000AE0002211463046FFF764FF00BF0120E4
:103AD0002072207A0128FAD170BDC206D20E0121CF
:103AE0009140274A11607047C206D20E01219140D1
:103AF000234A803211607047C206D20E01219140E4
:103B0000204A1160704710B5002819DA1E4A0307D1
:103B10001B0F083B9B089B00D2588307DC0EFF233A
:103B2000A3409A438B071B0E8407E40EA3401A435D
:103B3000154B0407240F083CA408A4001A5118E0F0
:103B40000F4A03231B02D21883089B00D258830715
:103B5000DC0EFF23A3409A438B071B0E8407E40E61
:103B6000A3401A43064B032424021B198408A40013
:103B70001A5110BD00800040005000406C0B002026
:103B800000E100E000E200E01CED00E052480069C6
:103B9000012108435049086170474F4800694008B7
:103BA00040004D49086170474B48006902210843B5
:103BB00049490861704748480069022188434649DD
:103BC0000861704710B545480078401C43490870AB
:103BD000002001218140424A116000BFFFF701FE31
:103BE0000020012181403E4A803A116000BF3D48DB
:103BF00000694021084080093B4948703B48407DAE
:103C0000002804D03948407D401E3849487537485F
:103C1000407D002802D008F04DFD04E0022007F0AE
:103C200063FF00BFFEE707F09BFE01212F4A1176DC
:103C300008462D4909784908490001432A4A11706C
:103C40002B480078401CC0B229490870C82801DB05
:103C50000020087027480078401CC0B22549087031
:103C6000642801DB0020087022480078002801D079
:103C7000012000E00020012148401B490978890704
:103C8000C90F084340000221084017490978022261
:103C9000914308431449087015480078002801D062
:103CA000012000E00020012148400F490978490720
:103CB000C90F08438000042108400B4909780422F9
:103CC000914308430849087010BD10B502480469C3
:103CD000FFF778FF10BD000000E000E05C0000206E
:103CE00080E100E00010014009000020E808002009
:103CF000650000206400002010B51621F74800F090
:103D0000DAFE10BD10B504467D21C90061430846A6
:103D100002F09AFA10BDF248806804210843F04985
:103D200088607047EE48806804218843EC498860C9
:103D30007047002001E0411C88B20528FBDB70477A
:103D400000B5FFF7E8FFE648806904210843E4492D
:103D50008861FFF7EEFFE248406908210843E04927
:103D60004861FFF7E6FFDE48406904210843DC496B
:103D7000486100BD00B5FFF7CEFFD9488069042136
:103D80000843D7498861FFF7D4FFD5484069082127
:103D90000843D3494861FFF7CCFFD1488069082127
:103DA0000843CF49886100BD00B5FFF7BBFF08237A
:103DB000002200BFCA48406908210843C849486139
:103DC000FFF7B7FFC648006904210840002802D069
:103DD0005000421C00E05200C1488069082108439D
:103DE000BF498861581E0300E4D1D0B200BD00B5C0
:103DF0000346FFF790FF082221E0802018400028AA
:103E000006D0B748406904210843B549486105E038
:103E1000B348806904210843B1498861B0484069CA
:103E200008210843AE494861FFF783FF5806030E97
:103E3000AB48806908210843A9498861521E002ABD
:103E4000DBD1A748806908210843A5498861FFF7AD
:103E500069FFA348406908210843A1494861FFF769
:103E600068FF9F4800690421084042009C4880691F
:103E7000082108439A498861FFF75BFF104600BD9F
:103E800000B50A2200BFFFF75BFFFFF74BFF944826
:103E9000006904210840002800D000BD501E020027
:103EA000F1D10A2200BF8E488069082108438C495D
:103EB0008861FFF745FFFFF735FF89480069042156
:103EC0000840002800D0E8E7501E0200EBD100BFF8
:103ED000E3E710B5FFF726FF814800690421084099
:103EE000002803D1FFF7CCFF012300E000230020CE
:103EF0007C4908707A48406908210843784948613C
:103F0000FFF710FF002B01D0FFF713FF7648007872
:103F1000002801D0022400E0012400BFFFF709FFC0
:103F2000601E0400FAD16E48006904210840002890
:103F300003D101206B49087010BDFFF7ECFE684803
:103F400080690421084366498861FFF7F2FE6448EE
:103F500080690821084362498861FFF7EAFE002072
:103F6000EAE708B50146CA78684602708A78427066
:103F70004A7882700A78C270009808BDF1B50F21A6
:103F80000902009808404700084607405749009832
:103F900008400090009838430090FFF79AFF0446CD
:103FA000002C01D02046F8BD6846FFF7DAFF0090EC
:103FB000042503E00098000A00906D1E0098C0B22E
:103FC0000028F7D00098C0B20121084306020098EB
:103FD0008843009000BF0099C8B2FFF708FF04466D
:103FE000002C01D02046DEE70098000A0090681EF1
:103FF0000500F0D13046D6E7F0B504460E46174628
:104000003046FFF7BBFF0546E8B2002801D0E8B212
:10401000F0BDFFF75EFF2904080EFFF7E8FE002859
:1040200006D0FFF78DFE01202E4908700220EFE731
:104030000AE0FFF7B9FE2070641C781E80B207000A
:1040400000D102E0FFF796FEF3E700BFFFF771FE35
:10405000234840690821084321494861FFF769FE68
:104060001F488069082108431D498861FFF761FEE8
:10407000FFF766FE00201B49087000BFC8E7FEB5C9
:1040800007460C461546002000906FE000261348B6
:104090000078002817D011484088A04213DC0F4850
:1040A00040880E4989884018611988420BDB0B480B
:1040B0004088221A0948801D11182A46384600F007
:1040C000CBFF0020FEBD102D14D309480068011954
:1040D0002A463846FFF790FF019022E0CC000020EE
:1040E000001401406900002068000020FFF000007B
:1040F0006C0000200294029C2046103002900121A6
:10410000C9020298884203D30846001B86B200E029
:10411000102698480068011932469748FFF76CFF4F
:1041200001900198002817D1002E06D110261022E8
:104130003946914800F090FF04E02A468E493846FF
:1041400000F08AFF8C48801F4480868001208A49C5
:10415000891F08700020B5E70098401CC0B200908D
:10416000052803DDFFF7C8FD0120ABE78EE7F7B5B3
:10417000074614468148C06F8007C00F002805D14C
:104180007F48807A4007C00F002801D00020FEBD84
:1041900072B601207B49087062B602F037F87A499E
:1041A00008702646E117090F891909110A31C8B2AA
:1041B00000F0D4FE224638460199FFF760FF05461D
:1041C00072B600206F49087062B6002D05D0FFF767
:1041D00093FD00F0C5FFC0B2D9E72846D7E7F0B598
:1041E00004460E4617463046FFF7C8FEC5B2002DFE
:1041F00001D02846F0BD0CE02078641CFFF7F7FDE5
:10420000002806D0FFF79CFD0120604908700220BD
:10421000F0E73846791E8FB20028EDD1FFF790FD08
:1042200000205A49087000BFE4E7F0B587B00746A0
:104230000C46154600200590FFF75EFD41E0200783
:10424000000F002804D02007000F10210E1A00E0F4
:104250001026AE4200DD2E4646480068011932465F
:104260003846FFF7BCFF06900620FFF74BFD069887
:10427000002809D00598401CC0B20590052802DD31
:10428000012007B0F0BD1CE03A4800680119324631
:1042900001A8FFF7B1FE3246394601A800F004FF3D
:1042A000002808D00598401CC0B20590052801DD03
:1042B0000120E6E705E0A81B85B2A01984B2BF196A
:1042C00000BF002DBBD10020DBE7F7B50746154640
:1042D0002F480078002805D0FFF70EFD00F040FFC2
:1042E000C0B2FEBD72B601202649087062B601F068
:1042F0008DFF2549087069006E18F117090F89199B
:104300000905080E00F02AFE2A4638460199FFF7F3
:104310008CFF044672B600201A49087062B6002C61
:1043200013D116488030406C01214903884313495A
:10433000803148641748806C0121C9030840002877
:1043400009D08F2000F066FD05E0FFF7D5FC00F0F6
:1043500007FFC0B2C5E72046C3E770B504460D4667
:104360001646FFF7C9FC324629462046FFF7FFFEF6
:1043700070BD00006C000020D200002088080020E2
:10438000480B00206A00002068000020690000201F
:104390006B000020D803002030B502460C46CD0F3C
:1043A0002D196D106D1E68B209E0135C4C1E241AA5
:1043B000145D14544C1E241A1355441E60B2002878
:1043C000F3DA30BD70B504460E463146206808F079
:1043D0004DFF8DB22068401B2060284670BD70B52F
:1043E00004460D462946206808F040FF8EB2294653
:1043F000206808F03BFF2060304670BD10B50446D1
:10440000FE49886E3C2108F031FFFD4948630422D3
:104410003431204600F020FE10BDF8B504460D46AC
:104420001646002C01D0002E01D10020F8BD002C32
:1044300001D10020FAE721460020C04308F016FF12
:1044400007460120009022E0E007C00F002806D1B7
:1044500064082146401E08F009FF07460EE0E80701
:10446000C00F002801D0AC4201D26D0806E06408FC
:1044700021460020C04308F0F9FE0746F007C00FB0
:10448000002801D1760802E0009840000090AF4279
:10449000DAD32046684304463146204608F0E6FE5B
:1044A0000F463146204608F0E1FE04460099794364
:1044B0000846314608F0DAFE009961434018B5E736
:1044C000D04909680918CF4A1160704770B5054690
:1044D0000C4600F0BDFD22462946CA48006800F09F
:1044E000C7FD2046FFF7ECFF70BD10B502E08B5C06
:1044F0000370401C1346541EA2B2002BF7D110BD0E
:1045000070B505460C4600F0A3FD22462946BD487D
:104510000068FFF7EAFF2046FFF7D2FF70BDB949F8
:1045200009680870B7490968491CB64A11607047A4
:104530000146C817000F4018001106235843081AF7
:10454000C0B2704731B50025032407E06946085D15
:10455000FFF7EEFF642169434518641E002CF5DA6D
:10456000284638BD70B504460D460422294620462B
:1045700000F07EFD70BD10B504460A21204608F00B
:104580008BFE062148430019C0B210BDF8B50546A0
:104590000E469B488038C06F0121C9048843984962
:1045A0008039C867002D09DA6D420846C06F0121C5
:1045B000C9048843401892498039C86700240FE035
:1045C0006421284608F068FECFB26421284608F02E
:1045D00063FE05463846FFF7CEFF3055601CC4B277
:1045E000052CEDDBF8BD10B50DE0332903D10378C0
:1045F0003333037006E0342903D10378333B03706F
:1046000000E00170401C1346541EA2B2002BECD1F6
:1046100010BD10B50446E2B221127A480068FFF7D7
:10462000E2FFE0B2FFF74CFF10BD10B50446204694
:10463000FFF7EFFF10BDF0B585B007460C46724896
:10464000204000281AD1E506ED0E002D00D12025CE
:104650006E48874203D22846FFF7E7FF34E1012086
:1046600080032040002804D129463846FFF72EFF5A
:104670002AE129463846FFF743FF25E1624810301A
:10468000204020280BD1E506ED0E002D02D15D481B
:10469000076019E1012DE1D15D48076014E15A4836
:1046A0001030204030280CD12146384608F06EFCEE
:1046B00003902007850F0420411B03A8FFF706FF86
:1046C00002E1FF2080012040402828D100200390F3
:1046D000A507AD0F012D09D10422394603A800F02A
:1046E000C7FC039880018009039006E00420401B6A
:1046F00082B2394603A800F0BBFC22464148039928
:10470000006808F057FBE006450F3E480068690066
:10471000404A8918497840183A490860D4E03A4834
:104720002040802810D1A007800F451CE006400FD4
:10473000461C06E029463846FFF7E2FE7F19701E48
:10474000C6B2002EF6D1BFE03F2000022040FF217C
:10475000013188428CD1A006800F451C2007800FB4
:10476000401C0090A607B60F2848874203D2009845
:10477000FFF75BFFA8E08020204000287AD1204886
:104780008038C06F0121C90488431D498039C8673A
:1047900000206946087201902A46394601A800F0B7
:1047A00067FC4020204000281DD1681E01A9085C3C
:1047B00080210840002812D011488038C06F0903BA
:1047C000884341180E488038C167042D07D0042162
:1047D000491B8AB201A94819FF21FFF704FF01A96B
:1047E0000198FFF7D3FE002E22D0F007C00F00285B
:1047F00015D0019800096946097A0DE08806002065
:104800000809002054000020E03F000000010020C3
:104810005800002096150100090708430190022066
:104820003040002804D001A9013101A8FFF79AFE09
:10483000F848C06F0003C00F002810D0F548803042
:1048400000788007C00F002809D10098401E01A9F8
:10485000095C802001430098401E01AA1154EE48D3
:10486000204001218903884205D101A80099FFF762
:104870002DFE29E004E001A80099FFF741FE23E0A6
:1048800000200190012080032040002805D02A4606
:10489000394601A800F0ECFB04E02A46394601A89D
:1048A000FFF723FE002E03D0B1000198884001904D
:1048B00040202040002803D10198FFF743FE0190DB
:1048C00001A80099FFF702FE05B0F0BDF0B587B072
:1048D00004460D466D046D0C261300200290042E34
:1048E00070D13003844212D16804400E401C0690FF
:1048F00000F0AEFBE9B2C948069A0068FFF773FE04
:10490000C648016806980818C4490860A9E0C2486A
:10491000BF38844216D16804400E401C069000F057
:1049200097FBBF480068BF49884203D20698FFF74B
:104930007CFE96E02906090C069A11430846FFF70B
:1049400068FE8EE0B8482040022808D1E007000C3D
:1049500028430390022103A8FFF7D2FD81E007203E
:104960004002204001214902884208D1E005000AA6
:1049700028430390032103A8FFF7C2FD71E00F2035
:10498000000220400121890288422ED1E6B20C208B
:104990003040042865DC301105900598042820DC9F
:1049A000059800F060FC0190082203A8019900F02E
:1049B0005FFBB607B60F002E05D1059805F0AAFCDF
:1049C00003900BE020E0012E04D104990398401AD3
:1049D000039003E0022E01D104980390012002907D
:1049E00001E00020039003AF3BE00120C002204023
:1049F0000121C902884234D16005400D8849096807
:104A00004718012002902CE00F20000320400028CE
:104A100006D12005000D854947180120029020E0AD
:104A20000F200003204001210903884206D1200500
:104A3000000D7F4947180120029012E00F2000036B
:104A4000204001214903884206D12005000D794903
:104A500047180120029004E0002C02D10027012019
:104A600002900298002803D029463846FFF7E3FD5C
:104A700007B0F0BD70B5044600BF658820882946A0
:104A8000FFF724FF241D0120C00328400028F4D094
:104A900070BDF7B505461446A606B60EA011C71C94
:104AA00006E028460199FFF7C6FDED19701EC6B253
:104AB000002EF6D1FEBD30B505460C46224600213B
:104AC0002846FFF790FD30BD30B505460C4622461E
:104AD000FF212846FFF787FD30BD10B50446FF21B2
:104AE000090221430846FFF794FD10BD70B5054645
:104AF0000E46144606E031462846FFF74DFCAD1938
:104B0000601EC4B2002CF6D170BD10B5044604215D
:104B10002046FFF741FC10BD30B505460C46224645
:104B200004212846FFF7E2FF30BDFFB504460D46DD
:104B300016462088A84202DD002004B0F0BD002205
:104B40000121C90300BF57180398874206DA50189D
:104B50007043205AA84201DC501882B24910002943
:104B6000F1D1501870430419A07800280AD0208889
:104B7000FF273F023840A77803463B439D4206DCAF
:104B80002046DAE72088A84201D12046D5E7002058
:104B9000D3E730B504460D46042229462046FFF7E8
:104BA000A4FC30BD70B504460D46022229462046BD
:104BB00000F05EFA70BD70B504460D460422294629
:104BC000204600F071FA70BD01461248006E88421E
:104BD00001D1002070470120FCE770B505460E4664
:104BE000002405E0285DFFF7A3FC2855601CC4B233
:104BF000B442F7DB70BD70B505460E46002405E0F3
:104C0000285DFFF7B8FC2855601CC4B2B442F7DB3E
:104C100070BD000088080020C04000005400002043
:104C20005800002000010020FE0F000008050020B1
:104C3000000300200001002038B5044621466846E4
:104C4000FFF790FC0098002803D00098401C002833
:104C500001D1012038BD0020FCE702460B460021AF
:104C600006E0505C002801D001207047481C81B24A
:104C70009942F6DB0020F8E713B50446042201A9A7
:104C8000204600F086FA1CBD13B50446022201A995
:104C9000204600F07EFA1CBD13B50446012201A98E
:104CA000204600F076FA1CBD10B5044600212046CF
:104CB000FFF7E2FF10BD10B50446DD48816E2046C7
:104CC000FFF7DAFF10BD70B50446D949886E3C2164
:104CD00008F0CCFA054629462046FFF7CDFF70BD07
:104CE00010B5D448416CD448FFF7C6FF10BD70B56D
:104CF0000446204600F07AFB0446802C00DB70BDA1
:104D0000E000CE494518A888002800D1F7E7A88818
:104D1000CB494618CB48CC4908603046FFF7AAFE7D
:104D20002146C84800F074FC00BFE8E710B504460F
:104D3000BF49896E2268881A3C2108F097FA10BD95
:104D4000F8B504460E461546A006800E0090009861
:104D50004100B948EC30405CC007C00F00282CD09F
:104D60002868002826D03768B148806E29688842B4
:104D70000ED92846FFF7DAFFC719872C04D18721FF
:104D8000B24800F045FC0DE02046FFF7B0FF09E017
:104D9000872C04D18721284600F03AFC02E0204607
:104DA000FFF7A5FF39463046FFF766FF2846FFF7B5
:104DB0007BFF02E02046FFF79AFFF8BDF8B50446F6
:104DC0000E461746092C00DBF8BDE0009B4945184C
:104DD00028688002400E092800DAF5E79448806EC2
:104DE0009849443948649348416C964844388164F2
:104DF0004430067228688002400E093882B2394673
:104E00009048093000F034F921468E4800F000FC4B
:104E100000BFD9E7F8B5044667077F0FE006860FA5
:104E200085482C30855D80202040002805D0012059
:104E3000B840294681430D4603E00120B84028438D
:104E4000C5B27D492C3188192946FFF725FFF8BDE9
:104E50003EB50446214602A8FFF784FB76481C387D
:104E6000806CC007C00F002814D17148806E00907C
:104E70007048406C01900C2269466F485C3800F025
:104E800088F901216C482C38FFF7FEFE0020FFF75F
:104E9000C1FF16E068495C39088E0A2108F0FCF968
:104EA0008900654854380D1828460299FFF7E4FE3A
:104EB00061485C38008E401C81B25F482C38FFF797
:104EC000E3FE3EBDF8B5054608225B495C3928463D
:104ED00000F0CEF858485C38068E00241CE0002E06
:104EE00011D0701E86B20A21304608F0D5F989002B
:104EF000514854380F18A200294608315018394635
:104F0000FFF730FB06E0A2002946083150180421C3
:104F1000FFF7DAFD601CC4B20A2CE0DBF8BD00B577
:104F20008DB045481C38806CC007C00F002801D1E7
:104F30000DB000BD8020FFF76DFF01A8FFF7C2FF95
:104F4000132101A800F064FB00BFF1E710B504468F
:104F5000214639482C30FFF78FFE10BD30B5431C79
:104F60000C246343394C4C3C647D1919FF2901DD45
:104F7000FF2300E0CBB21A4600BF344B4C3B5A75BE
:104F80005B7D9342F9D130BD10B501462F4A4C3AB2
:104F9000527D5018FF2800DDFF2000BF2B4B4C3BFB
:104FA00058751A46527D8242F8D110BD21484030D2
:104FB000807A04218843001D1E4940318872704761
:104FC00010B502460B461007000F1C07240F0119ED
:104FD000092901DD881D81B2F0201040F0241C4019
:104FE0000019401881B2FF20F1300840902802DDFE
:104FF0000846603081B2C8B210BD0107090F092907
:1050000006DB992801DB002004E0C11DC8B201E0E5
:10501000411CC8B27047411EC8B20107090F0929D7
:1050200005DB992801DD992001E0811FC8B2704796
:1050300088060020080B0020F40300200816010059
:10504000F41101004C050020540000203409002018
:10505000704701460878704710B503E00B7803707D
:10506000491C401C1346541EA2B2002BF6D110BDA1
:1050700030B5FC4CA14204D26405A14201D3FF2407
:1050800000E00024234609E0002B03D00024047034
:10509000401C03E00C780470491C401C1446551E4B
:1050A000AAB2002CF0D130BDF0B505460B4616462D
:1050B000002714E02846FFF7CCFF04461846FFF708
:1050C000C8FF0246944201DD0120F0BD944202DA9D
:1050D0000020C043F9E76D1C5B1C781C87B2B74207
:1050E000E8DB0020F1E710B503460C460CE018465B
:1050F000FFF7AFFF02465B1CA02A03DA1007000F80
:105100000A2801DB012010BD2046611ECCB2002818
:10511000EDD100BFF7E700B502460B4607E01046A9
:10512000FFF797FF002801D0012000BD521C184650
:10513000591ECBB20028F2D100BFF6E710B50246E7
:105140000C46002305E01046FFF783FFC01883B22A
:10515000521C2046611ECCB20028F4D1184610BD66
:1051600010B5C148406C0121490388434018BE492D
:1051700048640120BD490870BD48806C0121C90305
:105180000840002802D10F20FFF744FE012010BD87
:105190007047F7B586B005461646B548D838281A80
:1051A00087B2B81980B20390B2480290019032469B
:1051B00028460799FFF75CFF582F24DBFF21293190
:1051C000039888421FD8082E14D2A9488038281A7C
:1051D00081B2324604A8FEF7CAFF0446002C09D16A
:1051E000324604A80799FFF75FFFC4B2002C01D133
:1051F00009B0F0BD9E488038281A81B2324607981F
:10520000FFF763F82DE0FF20E130874223DBFF2129
:10521000F331039888421ED8082E13D29648281AD4
:10522000D03081B2324604A8FEF7A1FF0446002C1C
:1052300008D1324604A80799FFF736FFC4B2002C04
:1052400000D1D5E78C48281AD03081B23246079871
:10525000FFF73BF805E00299C8193246079906F0B6
:1052600042FE00BFC4E70146002901D183487047D0
:10527000481EC1B204290EDA80481838007A8842E4
:1052800002D17E480C38F2E70C200A4642437B48A4
:1052900014301018EBE70020E9E7704710B500F074
:1052A0001CFD0446002C00D110BD00BFFCE710B56A
:1052B000542172481038FFF7FEFB54236F4A98328E
:1052C000D11AC81A00F061FD00F057FD00F020FD72
:1052D00000F057FD6A48807A082188430830684901
:1052E000887206F0E7FC10BD0146704770B50925CD
:1052F00090205D49203948755C480078002802D02C
:10530000FFF7D5FF70BD00BFFC22072109025B48F3
:105310001038FEF72CFF0446002CF5D15423574AD1
:105320009832D11AC81A00F030FD00F0D6FC0546BC
:10533000002D00D1E6E7FFF7BAFF00BFE2E710B5A6
:1053400050480078002801D0012010BD4C48807AD8
:105350008006C00F002801D00120F6E772B6484849
:10536000807A2021884320304549887262B600F057
:10537000B4FC06F09FFC72B64148807A2021884335
:105380003F49887262B60020DFE710B504463B480B
:105390007838406E0078A04223D0FAF740FF3749B2
:1053A00018390A7A0C214A433449143150180C2216
:1053B0002039FFF75DFE0C20224642432F4814306F
:1053C00011180C222038FFF753FE2C4818380472AD
:1053D000FAF780FE2448406804218843001D2249D2
:1053E000486010BD7047704770477047024691068D
:1053F000890E092901DBFF2070474020104000285A
:1054000008D04B001C48C05CC007C00F002801D06A
:10541000FF20F1E780201040002808D04B001648FC
:10542000C05CC007C00F002801D1FF20E4E7084698
:10543000E2E770B504460D46092C01DB002070BD83
:105440000A2C23D12E46E817000F80190011000105
:10545000281A40020C49096D4904490C401880B2D1
:10546000EDE7000000010020080900206B0000208B
:10547000D803002000DC0000E0040020000600202B
:10548000480B00206A00002008160100E000F94ADD
:105490001058810D284607F0FFFEE000F54A10582D
:1054A0008002400E4143E000105A4004400C0818AE
:1054B00080B2C4E7F8B506460D46B406A40E092C22
:1054C00001DB0020F8BDC0203040002810D0680665
:1054D000050E6100E848405CC007C00F002801D1FC
:1054E000681CC5B280203040002801D0681EC5B2BB
:1054F0006100E148405AA84201DC0020E2E7092CA3
:1055000001DAFE2D01DB0020DCE7DC48817F601C36
:10551000814205D1D948C07FA84201D1D848D1E7FE
:105520006200D548825A681C101A81B22046FFF7E3
:1055300080FF0090E000CF4908588002470E8C2F72
:1055400000D98C27E000CB4908588002420ECC4895
:105550000099FEF70CFE601CC84988770846C5779D
:10556000C748AFE738B50446002000900422214622
:105570006846FEF7AAFE38BD70B50546AC06A40E17
:10558000092C00DB70BD002C05D100BF01E0601CC0
:10559000C4B2102CFBDB6200B74950180021FFF7A2
:1055A00073FB00BFEEE710B5024693069B0E092B76
:1055B00001DB002010BD5C00AF48005BB14CA04295
:1055C00001DD214602E05C00AB48015BC0201040D9
:1055D000002804D0481CC40F2418E403210C0846FA
:1055E000E8E7F8B506460C461546092C00DBF8BD81
:1055F00029462046FFF71DFF0746E0009D49085851
:105600008002420E39463046FEF75FFE00BFEEE7ED
:1056100070B506460C460020984988772046FFF76B
:10562000E5FE0446802C00DB70BD61009248425AC2
:1056300021463046FFF7D5FF61008F48405A401C95
:1056400085B29148854205DDE0008A490858800D01
:10565000281A85B26200884950182946FFF714FBC2
:1056600000BFE1E701468806010F8848405C7047AB
:1056700070B506460D46144613E0802C05DA224626
:1056800029463046FEF773FD70BD8022294630461C
:10569000FEF76DFD80362846803085B22046803882
:1056A00084B2002CE9D100BFEEE730B505460024F6
:1056B0000EE00120A0402840002807D0611CCA004D
:1056C0006E49943150180822FFF7D2FC601CC4B216
:1056D000042CEEDB30BD38B5044621466846FEF7A3
:1056E00041FF00988001800938BD10B563499031B1
:1056F000888DFFF737FF10BDF0B585B002A8FEF723
:105700007DFE70215D485030FFF7D5F90027002459
:105710003BE06006000C0390A100584A5032881804
:1057200004220399FFF7A4FFA00054495031085800
:105730008000000F0190A000085880018009A1009E
:105740004E4A50325050A0001146085802998842E3
:1057500002D8019800280BD10020A100474A5032FE
:105760005050A100881804220399FEF7AEFD0AE00C
:10577000A000424950310858B900404A50325158AF
:10578000884200D92746601CC4B2102CC1DBB80087
:105790003A4950310858002801D105B0F0BD3846CB
:1057A0000F30C117090F091809110901411AC9B2AF
:1057B00000917BE000984006000C03900122520209
:1057C00033480399FFF754FF314D36E0E8788006FF
:1057D000000F01902846FFF77EFF064602998E4291
:1057E00007D826485030406CB04202D801980028B3
:1057F0000DD12748291A0398081881B21F48903004
:105800008185002E02D0FFF770FF009F16E01B4835
:10581000503046641E48291A0398081881B2174868
:10582000943081800198FFF740FFE878FFF71AFF76
:1058300045191848854200D300E0C7E700BF00982B
:10584000B84229D11348854213D3781CC117090FD8
:10585000091809110901411ACCB26006010C074868
:10586000903081850020A100044A50325050FFF74B
:105870003CFF1CE008160100E0040020280900207D
:105880004C050020409C0000C4EA00000019010003
:1058900000010020FC0200200099481CC117090FDC
:1058A000091809110901411AC9B2009182E700BF24
:1058B00000BF72E7F8B506466D49888DC117C90D5E
:1058C000091849124902411A8FB2F078FFF7CAFE4F
:1058D000054678190121490288421DDDFFF705FFC1
:1058E000634A928DD11DF931CA17D20D5218501248
:1058F000C217120F121812111201821AD4B26006C6
:10590000010C5B48818500273046FFF7E4FEA100CB
:10591000574A403A50500EE0002F0CD15449888D20
:10592000C117C90D09184C123046FFF7D4FEA1006B
:105930004F4A403A50504E48818D2A463046FEF735
:10594000C4FC3046FFF7C7FE49494039486448481F
:10595000818D001D8180F078801000900098FFF705
:10596000A4FE4348808D401981B241488185781951
:10597000FF21FD31884217DB3D4A928DD11DF9315F
:10598000CA17D20D52185012C217120F1218121144
:105990001201821AD4B26006010C354881850020BC
:1059A000A100334A403A5050FFF79FFEF8BDF0B5D2
:1059B0002F483038046E002156E0481CC5172D0FC3
:1059C0002D182D112D01451BEAB2881CC5172D0F6E
:1059D0002D182D112D01451BEBB29000244D403D9B
:1059E0002858A04219D898002858A04215D99000EC
:1059F000285800280FD088002858002809D088008F
:105A0000285895001A4E403E7559A84201D20846C2
:105A1000F0BD1046FCE71846FAE79000144D403DF3
:105A200028589D00124E403E7559A8421AD9900040
:105A300035462858A0420DD888002858002807D09D
:105A40008800285895007559A84201D20846DFE71A
:105A50001046DDE79800064D403D2858A04201D988
:105A60001846D5E7481CC1B21029A6DBFF20CFE7B6
:105A7000B809002010B502460023002005E0147884
:105A80002418A0B25C1CA3B2521C8B42F7DB10BDE1
:105A9000F0B50446601AC5B2A01AC6B2881AC7B2D9
:105AA000002D05D0002E03D0002F01D00120F0BD25
:105AB000002D01D11C7006E0002E01D1197002E00A
:105AC000002F00D11A700020F1E7F8B50446601AE3
:105AD00085B2A01A86B2881A87B2002D05D0002E92
